:100000000C945E000C9486000C9486000C94860080
:100010000C9486000C9486000C9486000C94860048
:100020000C9486000C9486000C9486000C94860038
:100030000C9486000C9486000C9486000C94860028
:100040000C94AB020C9486000C9479020C9453022D
:100050000C9486000C9486000C9486000C94860008
:100060000C9486000C9486000000000024002700F9
:100070002A0000000000250028002B0004040404CE
:100080000404040402020202020203030303030342
:10009000010204081020408001020408102001021F
:1000A00004081020000000080002010000030407FB
:1000B0000000000000000000F502660411241FBECD
:1000C000CFEFD8E0DEBFCDBF21E0A2E2B1E001C0BA
:1000D0001D92A23DB207E1F711E0A0E0B1E0E6E930
:1000E000FDE002C005900D92A232B107D9F710E0F1
:1000F000CDE5D0E004C02197FE010E94A304CC35D9
:10010000D107C9F70E9430030C94BE060C9400007E
:10011000E1EBF0E02491EDE9F0E09491E9E8F0E022
:10012000E491EE2309F43BC0222339F1233091F00E
:1001300038F42130A9F0223001F524B52F7D12C00A
:10014000273091F02830A1F02430B9F420918000BC
:100150002F7D03C0209180002F77209380000DC059
:1001600024B52F7724BD09C02091B0002F7703C09C
:100170002091B0002F7D2093B000F0E0EE0FFF1F24
:10018000EE58FF4FA591B4912FB7F894EC918111DF
:1001900003C090959E2301C09E2B9C932FBF089572
:1001A000CF92DF92EF92FF920F931F93CF93DF9343
:1001B0006C017A018B01C0E0D0E0CE15DF0589F03B
:1001C000D8016D918D01D601ED91FC910190F081E6
:1001D000E02DC6010995892B11F47E0102C02196FC
:1001E000ECCFC701DF91CF911F910F91FF90EF905E
:1001F000DF90CF900895089580E090E00895FC018D
:10020000538D448D252F30E0842F90E0821B930B7B
:10021000541710F0CF96089501970895FC01918D21
:10022000828D981761F0828DDF01A80FB11D5D9658
:100230008C91928D9F5F9F73928F90E008958FEFC6
:100240009FEF0895FC01918D828D981731F0828D7A
:10025000E80FF11D858D90E008958FEF9FEF0895D1
:10026000FC01918D228D892F90E0805C9F4F821B35
:1002700091098F73992708958BE291E00E943001D4
:1002800021E0892B09F420E0822F0895FC01848D60
:10029000DF01A80FB11DA35ABF4F2C91848D90E0B0
:1002A00001968F739927848FA689B7892C93A0898B
:1002B000B1898C9180648C93938D848D981306C042
:1002C0000288F389E02D80818F7D80830895EF92ED
:1002D000FF920F931F93CF93DF93EC0181E0888F00
:1002E0009B8D8C8D981305C0E889F989808185FDE7
:1002F00024C0F62E0B8D10E00F5F1F4F0F731127D8
:10030000E02E8C8DE8120CC00FB607FCFACFE889FE
:10031000F989808185FFF5CFCE010E944601F1CF9A
:100320008B8DFE01E80FF11DE35AFF4FF0820B8F1A
:10033000EA89FB898081806207C0EE89FF8960833A
:10034000E889F98980818064808381E090E0DF9191
:10035000CF911F910F91FF90EF900895CF93DF936E
:10036000EC01888D8823C9F0EA89FB89808185FDAD
:1003700005C0A889B9898C9186FD0FC00FB607FC0E
:10038000F5CF808185FFF2CFA889B9898C9185FF4F
:10039000EDCFCE010E944601E7CFDF91CF910895C6
:1003A00080E090E0892B29F00E943C0181110C949F
:1003B000000008953FB7F89480912701909128019B
:1003C000A0912901B0912A0126B5A89B05C02F3F15
:1003D00019F00196A11DB11D3FBFBA2FA92F982F6B
:1003E0008827820F911DA11DB11DBC01CD0142E0E6
:1003F000660F771F881F991F4A95D1F708950E94AD
:10040000A0060F931F93CF93DF93EC01888199810E
:10041000009729F02A813B812617370788F48B0142
:100420006F5F7F4F0E94D605009761F099838883A4
:100430001B830A832C813D81232B11F4FC01108244
:1004400081E001C080E0DF91CF911F910F9108956D
:10045000EF92FF920F931F93CF93DF93EC017B01F9
:100460008A01BA010E9401022881398181110DC0DF
:100470002115310519F0C9010E943E051982188223
:100480001D821C821B821A8206C01D830C83B70149
:10049000C9010E94B706CE01DF91CF911F910F9144
:1004A000FF90EF9008951F920F920FB60F921124B4
:1004B0002F933F934F935F936F937F938F939F936C
:1004C000AF93BF93EF93FF938BE291E00E944601BD
:1004D000FF91EF91BF91AF919F918F917F916F911C
:1004E0005F914F913F912F910F900FBE0F901F90F2
:1004F00018951F920F920FB60F9211242F938F937E
:100500009F93EF93FF93E0913B01F0913C01808139
:10051000E0914101F091420182FD12C090818091F1
:1005200044018F5F8F7320914501821751F0E09154
:100530004401F0E0E55DFE4F958F8093440101C0DA
:100540008081FF91EF919F918F912F910F900FBE1E
:100550000F901F9018951F920F920FB60F921124B3
:100560002F933F938F939F93AF93BF9380912301DA
:1005700090912401A0912501B09126013091220192
:1005800023E0230F2D3720F40196A11DB11D05C0D6
:1005900026E8230F0296A11DB11D2093220180930E
:1005A000230190932401A0932501B093260180910B
:1005B000270190912801A0912901B0912A0101966B
:1005C000A11DB11D8093270190932801A0932901BB
:1005D000B0932A01BF91AF919F918F913F912F913D
:1005E0000F900FBE0F901F901895EBE2F1E0138271
:1005F000128288EE93E0A0E0B0E084839583A68326
:10060000B7838AE091E09183808385EC90E09587C1
:10061000848784EC90E09787868780EC90E0918BCC
:10062000808B81EC90E0938B828B82EC90E0958BB9
:10063000848B86EC90E0978B868B118E128E138EB6
:10064000148EE8ECF1E0118210821382128215827E
:10065000148240E050E06AE171E0CF010C9428027E
:10066000CF93DF9300D0CDB7DEB7789484B58260A6
:1006700084BD84B5816084BD85B5826085BD85B546
:10068000816085BD80916E00816080936E001092C4
:10069000810080918100826080938100809181003F
:1006A00081608093810080918000816080938000D0
:1006B0008091B10084608093B1008091B00081602E
:1006C0008093B00080917A00846080937A0080915A
:1006D0007A00826080937A0080917A0081608093B2
:1006E0007A0080917A00806880937A001092C1002D
:1006F000EDE9F0E02491E9E8F0E08491882399F0B5
:1007000090E0880F991FFC01E859FF4FA591B49123
:10071000FC01EE58FF4F859194918FB7F894EC91BE
:10072000E22BEC938FBFE0913B01F0913C0182E022
:100730008083E0913701F09138011082E091390116
:10074000F0913A018FEC808310924301E0913F01D8
:10075000F091400186E08083E0913D01F0913E01FF
:10076000808180618083E0913D01F0913E01808134
:1007700088608083E0913D01F0913E018081806836
:100780008083E0913D01F0913E0180818F7D8083E7
:100790008BE291E00E943001892B09F44FC00E9446
:1007A000DA014B015C018AE0C82ED12CE12CF12C3E
:1007B0000E94DA01DC01CB0188199909AA09BB0959
:1007C000883E9340A105B10558F021E0C21AD10836
:1007D000E108F10888EE880E83E0981EA11CB11C88
:1007E000C114D104E104F10419F78BE291E00E94F5
:1007F0000E0189831A82E090CC01F090CD018FEF39
:10080000E81AF80AB70188EC91E00E9401028823F7
:1008100009F4BECF2091C8013091C9018091CC016B
:100820009091CD01BE016F5F7F4F820F931F0E9499
:10083000B706F092CD01E092CC01AACF4091CC0155
:100840005091CD0141155105F1F16091C8017091B0
:10085000C9018BE291E00E94D00042E050E068E1E3
:1008600071E08BE291E00E94D0008091CC019091E8
:10087000CD01892B69F06BE171E08091C801909105
:10088000C9010E94AE06892B19F481E00E948800FC
:100890008091CC019091CD01892B69F06EE171E0DE
:1008A0008091C8019091C9010E94AE06892B19F46C
:1008B00080E00E94880040E050E06AE171E088EC4E
:1008C00091E00E9428020E94D00162CF8091C8016D
:1008D0009091C9010C943E052F923F924F925F92E6
:1008E0006F927F928F929F92AF92BF92CF92DF9240
:1008F000EF92FF920F931F93CF93DF93CDB7DEB7A5
:10090000CA1BDB0B0FB6F894DEBF0FBECDBF099438
:100910002A88398848885F846E847D848C849B848F
:10092000AA84B984C884DF80EE80FD800C811B819D
:10093000AA81B981CE0FD11D0FB6F894DEBF0FBECC
:10094000CDBFED010895EE0FFF1F0590F491E02D4E
:100950000994CF93DF938230910510F482E090E008
:10096000E091D001F091D10120E030E0C0E0D0E092
:10097000309711F14081518148175907C0F048174D
:10098000590761F482819381209719F09B838A83B0
:100990002BC09093D1018093D00126C02115310541
:1009A00019F04217530718F49A01BE01DF01EF0155
:1009B0000280F381E02DDCCF2115310509F1281BE0
:1009C000390B2430310590F412968D919C91139738
:1009D0006115710521F0FB019383828304C090931C
:1009E000D1018093D001FD01329644C0FD01E20F98
:1009F000F31F81939193225031092D933C933AC078
:100A00002091CE013091CF01232B41F4209102019E
:100A1000309103013093CF012093CE01209100014A
:100A2000309101012115310541F42DB73EB74091B8
:100A3000040150910501241B350BE091CE01F0918A
:100A4000CF01E217F307A0F42E1B3F0B281739073D
:100A500078F0AC014E5F5F4F2417350748F04E0F1A
:100A60005F1F5093CF014093CE018193919302C0B9
:100A7000E0E0F0E0CF01DF91CF9108950F931F9355
:100A8000CF93DF93009709F48CC0FC013297138257
:100A900012820091D0011091D1010115110581F44C
:100AA00020813181820F931F2091CE013091CF019F
:100AB0002817390779F5F093CF01E093CE0171C083
:100AC000D80140E050E0AE17BF0750F412962D91C8
:100AD0003C911397AD012115310509F1D901F3CFEF
:100AE0009D01DA013383228360817181860F971F14
:100AF0008217930769F4EC0128813981260F371F8B
:100B00002E5F3F4F318320838A819B819383828331
:100B1000452B29F4F093D101E093D00142C0139604
:100B2000FC93EE931297ED01499159919E01240F88
:100B3000351FE217F30771F480819181840F951FAF
:100B4000029611969C938E938281938113969C9327
:100B50008E931297E0E0F0E0D80112968D919C916F
:100B60001397009719F0F8018C01F6CF8D919C91A5
:100B700098012E5F3F4F820F931F2091CE0130913D
:100B8000CF012817390769F4309729F41092D10161
:100B90001092D00102C0138212821093CF010093F1
:100BA000CE01DF91CF911F910F910895A0E0B0E0A9
:100BB000ECEDF5E00C947004EC01009721F4CB010E
:100BC0000E94A904B8C0FC01E60FF71F9C01225047
:100BD0003109E217F30708F4ACC0D9010D911C915B
:100BE000119706171707B0F00530110508F49FC0DC
:100BF000C80104978617970708F499C00250110995
:100C0000061B170B019311936D937C93CF010E94E8
:100C10003E058DC05B01A01AB10A4C01800E911EE9
:100C2000A091D001B091D10140E050E0E12CF12C35
:100C3000109709F44AC0A815B905D1F56D907C90BC
:100C40001197630182E0C80ED11CCA14DB0480F145
:100C5000A3014A195B096A0182E0C80ED11C1296F1
:100C6000BC9012971396AC91B5E0CB16D10440F02E
:100C7000B282A38351834083D9016D937C930AC0D0
:100C80000E5F1F4FC301800F911FF9019183808375
:100C9000EB2DFA2FE114F10431F0D7011396FC93F8
:100CA000EE93129744C0F093D101E093D0013FC07E
:100CB0008D919C9111974817590708F4AC017D015B
:100CC00012960D90BC91A02DB3CF8091CE01909142
:100CD000CF0188159905E1F446175707C8F48091AC
:100CE000000190910101009741F48DB79EB74091AA
:100CF000040150910501841B950BE817F907C8F40E
:100D0000F093CF01E093CE01F901718360830FC0AE
:100D1000CB010E94A9047C01009759F0A801BE01F3
:100D20000E94A506CE010E943E05C70104C0CE0167
:100D300002C080E090E0CDB7DEB7EEE00C948C040A
:100D400081E090E0F8940C94BE06FB01DC0102C047
:100D500001900D9241505040D8F70895FB01DC01FD
:100D60008D91019080190110D9F3990B0895FB0121
:100D7000DC0101900D920020E1F7089510E0CDE52F
:100D8000D0E004C0FE010E94A3042196CE35D10715
:060D9000C9F7F894FFCF43
:100D96000000D2018000000000006701D000FF00C3
:100DA600AE0130010E0122010D0A006F6E006F6662
:020DB6006600D5
:00000001FF
